:100000000C9434000C9451000C9451000C94510049
:100010000C9451000C9451000C9451000C9451001C
:100020000C9451000C9451000C9451000C9451000C
:100030000C9451000C9451000C9451000C945100FC
:100040000C9451000C9451000C9451000C945100EC
:100050000C9451000C9451000C9451000C945100DC
:100060000C9451000C94510011241FBECFEFD8E026
:10007000DEBFCDBF11E0A0E0B1E0EAE3F5E002C0F1
:1000800005900D92A432B107D9F721E0A4E2B1E0C6
:1000900001C01D92A833B207E1F70E9464000C94DE
:1000A0009B020C9400008091C00087FFFCCF8091E0
:1000B000C60090E008959091C00095FFFCCF80931A
:1000C000C60090E080E00895CDB7DEB7C352D140BE
:1000D0000FB6F894DEBF0FBECDBF87E690E09093D9
:1000E000C5008093C4001092C00088E18093C100D5
:1000F00086E08093C20084E291E02BE530E030930B
:100100002D0120932C0123E530E030932F01209323
:100110002E0123E02093270110923101109230012B
:100120009093370180933601909335018093340189
:10013000909333018093320180E284B984E2E0E05D
:10014000F1E0DE01B39501900D928A95E1F750E25E
:10015000B52EAE014F5F5F4F6A017A0100E010C01B
:100160000F3FC9F06091340170913501812F012E4C
:10017000000C990B0E946B020F5FF70111937F0136
:1001800080913201909133010E942D02182F8A3004
:1001900039F70023F1F230E0F60181916F018B35E0
:1001A0000CF0FBC081340CF02AC1803209F41DC16F
:1001B0000CF4E9C080538A3008F0E5C0E0E0F1E0DB
:1001C000EC0FFD1FE80FF11D87FDFA952081822FAE
:1001D000022E000C990B9595879595958795959589
:1001E00087959595879595958795877009F4C2C0F1
:1001F000B5B820FDD9C05FEF63EC99E05150604085
:100200009040E1F700C0000015B8922F95955FEF80
:1002100063ECE9E051506040E040E1F700C00000CD
:10022000813009F4A7C0B5B890FDC9C0FFEF43EC19
:1002300059E0F15040405040E1F700C0000015B8CF
:10024000922F95959595FFEF43EC59E0F150404082
:100250005040E1F700C00000823009F48BC0B5B80F
:1002600090FDB8C06FEF93ECE9E061509040E04042
:10027000E1F700C0000015B8922F959595959595DA
:100280006FEFE3ECF9E06150E040F040E1F700C0CF
:100290000000833009F46EC0B5B890FDB2C04FEFD6
:1002A00053EC69E0415050406040E1F700C000006D
:1002B00015B8922F95959595959595954FEF53EC8B
:1002C00069E0415050406040E1F700C000008430D8
:1002D00009F450C0B5B890FD9FC09FEFE3ECF9E082
:1002E0009150E040F040E1F700C0000015B8922FB7
:1002F00095959595959595959595EFEFF3EC49E046
:10030000E150F0404040E1F700C00000853091F13D
:10031000B5B890FD8CC05FEF63EC99E05150604040
:100320009040E1F700C0000015B826FB220F220B19
:1003300020F95FEF63EC99E0515060409040E1F7A5
:1003400000C000008630B1F0B5B820FF7BC0EFEFF1
:10035000FBE42DE1E150F0402040E1F700C0000057
:1003600015B88FEF93ECE9E081509040E040E1F761
:1003700000C00000FFEF27E843E1F150204040407B
:10038000E1F700C000003F5F301708F0E2CEF60151
:1003900081916F018B350CF405CF9FE9980F87553C
:1003A0009A3108F40BCFEFCFEFEFFBE44DE1E150D2
:1003B000F0404040E1F700C0000015B826CF6FEFD5
:1003C0009BE4EDE161509040E040E1F700C00000A7
:1003D00015B836CFFFEF4BE45DE1F150404050409F
:1003E000E1F700C0000015B847CFFFEF2BE544E46C
:1003F000F15020404040E1F700C00000C4CF8753D7
:10040000DDCE9FEFEBE4FDE19150E040F040E1F7FD
:1004100000C0000015B84DCF4FEF5BE46DE14150D7
:1004200050406040E1F700C0000015B860CFEFEF2A
:10043000FBE44DE1E150F0404040E1F700C0000036
:1004400015B873CF4FEF53EC69E041505040604016
:10045000E1F700C0000015B884CFCF93DF93EC0123
:100460002B8120FF33C026FF0AC02F7B2B838E8178
:100470009F8101969F838E838A8190E029C022FF0D
:100480000FC0E881F9818081082E000C990B00973C
:1004900019F420622B831AC03196F983E8830EC0C9
:1004A000EA85FB85099597FF09C02B81019611F01C
:1004B00080E201C080E1822B8B8308C02E813F81C6
:1004C0002F5F3F4F3F832E83992702C08FEF9FEF0F
:1004D000DF91CF9108950F931F93CF93DF93182F40
:1004E000092FEB018B8181FD03C08FEF9FEF1EC0B1
:1004F00082FF0FC02E813F818C819D812817390793
:1005000074F4E881F981CF0101969983888310837F
:1005100006C0E885F985812F0995892B31F78E81F1
:100520009F8101969F838E83812F902FDF91CF91A2
:0A0530001F910F910895F894FFCF7A
:10053A00BFBEBCB8B0A0A1A3A7AF42818561208489
:10054A006380408E6582434167868B62602164883E
:04055A0066898D839E
:00000001FF
