:100000000C9434000C943E000C943E000C943E0082
:100010000C943E000C943E000C943E000C943E0068
:100020000C943E000C943E000C943E000C943E0058
:100030000C943E000C943E000C943E000C943E0048
:100040000C943E000C943E000C943E000C943E0038
:100050000C943E000C943E000C943E000C943E0028
:100060000C943E000C943E0011241FBECFEFD8E04C
:10007000DEBFCDBF0E9462000C94C1000C94000052
:1000800080E48093800089E180938100219A089523
:100090006AE070E00E949900CB010197672B89F01C
:1000A000189B08C02D9A25E22A95F1F700000197C8
:1000B000B8F708952D9825E22A95F1F700000197E9
:1000C00078F7089520982898259A80E480938000F6
:1000D00089E180938100219A42ED50E027EE33E0E0
:1000E00050938700409386008CE390E007C02D9AE0
:1000F00065E26A95F1F70000019749F01899F7CF8A
:100100002D9865E26A95F1F700000197B9F73093F1
:100110008700209386008CE390E007C02D9A65E26B
:100120006A95F1F700000197D9F21899F7CF2D9849
:10013000F6CF97FB072E16F4009407D077FD09D071
:100140000E94AD0007FC05D03EF4909581959F4F2D
:100150000895709561957F4F0895AA1BBB1B51E1CF
:1001600007C0AA1FBB1FA617B70710F0A61BB70B27
:10017000881F991F5A95A9F780959095BC01CD01CC
:060180000895F894FFCF82
:00000001FF
