S0120000656E67696E655F7265762E73726563F0
S11300000C9434000C9451000C9451000C94510045
S11300100C9451000C9451000C9451000C94510018
S11300200C9451000C9451000C9451000C94510008
S11300300C9451000C9451000C9451000C945100F8
S11300400C9451000C9451000C9451000C945100E8
S11300500C9451000C94E1000C9451000C94510048
S11300600C9451000C94510011241FBECFEFD8E022
S1130070DEBFCDBF11E0A0E0B1E0E4E0FAE002C0F1
S113008005900D92AA35B107D9F721E0AAE5B1E0B0
S113009001C01D92A037B207E1F70E94D8010C9469
S11300A000050C9400009091C00095FFFCCF809354
S11300B0C60090E080E008958091C00087FFFCCFE7
S11300C08091C60090E0089587E690E09093C50083
S11300D08093C40088E18093C10086E08093C200CD
S11300E00895ECE7F0E08081806C808381E0809368
S11300F07E00EAE7F0E087E080838081886A80837D
S11301007894089581EF809380008BE08093810040
S1130110219A109289001092880010928B001092FC
S11301208A000895909389008093880010928B0030
S113013010928A00089590938B0080938A00109205
S11301408900109288000895809188009091890018
S1130150892B29F0809188009091890008958091DD
S11301608A0090918B000895209188003091890035
S113017081E0232B09F480E00895882389F08FE738
S113018090E0909389008093880010928B001092E5
S11301908A008FE99FE00197F1F700C000000895FD
S11301A08FE790E090938B0080938A0010928900EF
S11301B0109288008FE99FE00197F1F700C00000DA
S11301C008951F920F920FB60F9211242F933F930D
S11301D04F935F936F937F938F939F93AF93BF934B
S11301E0EF93FF9380917800909179009C0136956C
S11301F027958431910508F498C0A901465F5109F7
S11302004930510508F491C08E3EF3E09F0708F091
S113021065C0A9015A954930510508F45FC08E3F65
S1130220914008F077C08FEF90E0821B930B90937E
S113023089008093880010928B0010928A0080912C
S11302405A0190915B019C012F5F3F4F30935B01FA
S113025020935A019170892B81F5809188009091A7
S11302608900892B09F47AC08091880090918900D3
S11302701F9225E22F9344E6489F9001499F300D39
S11302801124A1E8B0E80E9435029C01220F232F1B
S1130290221F330B319584E690E0821B930B9F93CE
S11302A08F9380E091E09F938F930E9444020F907C
S11302B00F900F900F900F900F90FF91EF91BF91BF
S11302C0AF919F918F917F916F915F914F913F91EA
S11302D02F910F900FBE0F901F90189540918A0098
S11302E050918B004B30510508F499CF4FE750E003
S11302F050938B0040938A001092890010928800DA
S1130300EFE9FFE03197F1F700C000008E3F914024
S113031008F489CF2F5F310930938B0020938A0032
S113032010928900109288008ACF409188005091E1
S113033089004B30510508F467CF4FE750E05093E4
S113034089004093880010928B0010928A00EFE994
S1130350FFE03197F1F700C0000056CF80918A008A
S113036090918B001F9225E22F9344E6489F9001C1
S1130370499F300D1124A1E8B0E80E9435029C0188
S1130380220F232F221F330B319584E690E0821B2A
S1130390930B9F938F938CE291E09F938F930E9492
S11303A044020F900F900F900F900F900F9085CFF5
S11303B087E690E09093C5008093C40088E1809321
S11303C0C10086E08093C2008CE591E023E530E033
S11303D030936501209364012CE530E0309367018C
S11303E02093660123E020935F011092690110922B
S11303F0680190936F0180936E0190936D018093D7
S11304006C0190936B0180936A0181EF809380006B
S11304108BE080938100219A1092890010928800C9
S113042010928B0010928A0080917C00806C8093E3
S11304307C0081E080937E0087E080937A00809145
S11304407A00886A80937A00789480917A00806434
S113045080937A0083B7817F83BF83B7816083BF32
S1130460889583B78E7F83BFF8CFA29FB001B39FD7
S1130470C001A39F700D811D1124911DB29F700DA9
S1130480811D1124911D0895B0E0A0E0EAE4F2E09A
S11304900C94D904AE014B5F5F4FFA0161917191E5
S11304A0AF0180916C0190916D010E945A02E2E0CB
S11304B00C94F504ABE0B0E0E0E6F2E00C94C9047F
S11304C07C013B018A01FC0117821682838181FF32
S11304D0B9C19AE0292ECE0101965C01F7019381FE
S11304E0F30193FD859193FF81913F01882309F4E2
S11304F046C1853239F493FD859193FF81913F0183
S1130500853229F4B70190E00E943B04E7CF912C97
S1130510412C512CFFE1F51538F08B3209F188F4A8
S1130520803201F1833221F157FC3AC020ED280FCB
S11305302A3040F556FE1FC0929C200D1124922EA5
S113054006C08D3291F0803379F7689450F8F30146
S113055093FD859193FF81913F018111DBCF20C0F1
S1130560689451F8689452F8F2CF689453F8EFCF36
S1130570689454F8ECCF429C200D1124422E6894C8
S113058055F8E5CF8E3229F456FCF9C0689456F834
S1130590DECF8C3619F4689457F8D9CF8836B9F27F
S11305A0982F9F7D95549330C0F08336A1F1833703
S11305B0C1F1833509F05BC0F801C190D1908F017E
S11305C0692D70E056FC02C06FEF7FEFC6010E94F8
S11305D025044C01689457F80AC00C5F1F4F2FE3A1
S11305E0298388248394912C6501E89457F853FC5B
S11305F004C04814190409F018F5342C811491042A
S113060031F5332009F46ACFB70180E290E00E940B
S11306103B043A94F6CFF801808189830E5F1F4F23
S1130620E0CFF801C190D1908F01692D70E056FCA4
S113063002C06FEF7FEFC6010E9430044C01D5CF9A
S1130640B70180E290E00E943B044A94D2CFF601C5
S113065057FC859157FE81916F01B70190E00E948C
S11306603B0431103A94F1E08F1A9108C7CF8436D5
S113067019F0893609F074C0F80157FE6AC0619117
S11306807191819191918F01252D2F76D22E97FF13
S113069009C090958095709561957F4F8F4F9F4FBE
S11306A06894D7F82AE030E0A5010E946B04C82EB4
S11306B0CA188C2C5D2CD6FE0CC0E89450F8C914D2
S11306C040F4D4FE05C0D2FC03C0FD2DFE7E5F2E97
S11306D0892C54FE8FC0FE01EC0DF11D8081803306
S11306E009F081C0252D297E522E852D8870382E43
S11306F053FC8FC050FE89C09C2C841418F44C0CFD
S1130700942C981854FE8BC0B70180E390E00E94AB
S11307103B0452FE09C088E790E051FE02C088E520
S113072090E0B7010E943B04C91408F484C0CA9441
S1130730D12C9FEFC91AD90ACA0CDB1CF60182918D
S11307406F01B70190E00E943B04AC14BD04B1F703
S113075058CF61917191072E000C880B990B93CFA0
S1130760D52CE894D4F82AE030E0853739F1952D7A
S1130770997FD92E8F3601F148F48835A9F0F70115
S1130780868197812B96E2E10C94E504803749F049
S11307908837A9F7D4FE02C06894D2F820E130E08B
S11307A00DC06894D4F8F6CF54FE03C0E92FE66078
S11307B0DE2E20E132E002C028E030E0F801D7FE6E
S11307C00DC061917191819191918F01A5010E9458
S11307D06B04C82ECA18E894D7F86BCF6191719155
S11307E090E080E0F2CF52FC02C083947ECF8394E9
S11307F083947BCF852D867809F477CFF6CFB70124
S113080080E290E00E943B0483948414C0F3312C72
S113081079CF342C3818841408F474CFF8CF852D8C
S1130820867809F481CF8BE251FE80E257FC8DE299
S1130830B70190E077CFB70180E390E00E943B04DA
S11308409A9472CF8FEF9FEF9DCFFC01059061507A
S113085070400110D8F7809590958E0F9F1F0895D2
S1130860FC016150704001900110D8F7809590957B
S11308708E0F9F1F08950F931F93CF93DF93182F0D
S1130880092FEB018B8181FD09C01FEF0FEF812F31
S1130890902FDF91CF911F910F91089582FF14C083
S11308A02E813F818C819D81281739073CF4E88192
S11308B0F981CF0101969983888310838E819F816A
S11308C001969F838E83E3CFE885F985812F09956F
S11308D0892BA1F3DACFFA01AA27283051F120316C
S11308E081F1E8946F936E7F6E5F7F4F8F4F9F4FC0
S11308F0AF4FB1E03ED0B4E03CD0670F781F891F02
S11309009A1FA11D680F791F8A1F911DA11D6A0FCF
S1130910711D811D911DA11D20D009F468943F9182
S11309202AE0269F11243019305D3193DEF6CF0181
S11309300895462F4770405D4193B3E00FD0C9F747
S1130940F6CF462F4F70405D4A3318F0495D31FDB4
S11309504052419302D0A9F7EACFB4E0A695979507
S1130960879577956795BA95C9F7009761057105DD
S113097008959B01AC010A2E069457954795379527
S11309802795BA95C9F7620F731F841F951FA01D81
S113099008952F923F924F925F926F927F928F921F
S11309A09F92AF92BF92CF92DF92EF92FF920F93FA
S11309B01F93CF93DF93CDB7DEB7CA1BDB0B0FB604
S11309C0F894DEBF0FBECDBF09942A8839884888C1
S11309D05F846E847D848C849B84AA84B984C88457
S11309E0DF80EE80FD800C811B81AA81B981CE0F4E
S11309F0D11D0FB6F894DEBF0FBECDBFED01089533
S1070A00F894FFCF94
S1130A04456E67696E6520776F726B696E67206CDB
S1130A146566742061742025642563206F662065EF
S1130A246666696369656E63790D0A00456E676974
S1130A346E6520776F726B696E672072696768747C
S1130A442061742025642563206F662065666669C9
S10D0A546369656E63790D0A000002
S9030000FC
